20180200000000007859600001D0151059601022018000000000004204JL180202000004 Comunic Geral–Cont.T00000151pereirjr
20180200000000009549600002C0125049601022018000000000002280JL180202000005 Mat.Seg.Prot.p/Unifo00000125pereirjr
20180200000000009549600003C0125049602022018000000000011860JL180205000009 Mat.Seg.Prot.p/Unifo00000125pereirjr
20180200000000007562100004D0755062105022018000000000035003JL180205000018 Despesa c/Viagens/Ou00000755santosl
20180200000000009562100005D0570062105022018000000000017705JL180205000018 Despesa c/Viagens/Ou00000570santosl
20180200000000009562100006D0572062105022018000000000198372JL180205000018 Despesa c/Viagens/Ou00000572santosl
20180200000000009549600007C0125049605022018000000000016774JL180206000004 Mat.Seg.Prot.p/Unifo00000125pereirjr
20180200000000007462700008C0740062705022018000000000000301JL180206000004 ASSIST.MEDICA MEDICA00000740pereirjr
20180200000000007562700009C0750062705022018000000000000051JL180206000004 ASSIST.MEDICA MEDICA00000750pereirjr
20180200000000007562700010C0752062705022018000000000000050JL180206000004 ASSIST.MEDICA MEDICA00000752pereirjr
20180200000000007562700011C0755062705022018000000000000151JL180206000004 ASSIST.MEDICA MEDICA00000755pereirjr
20180200000000007662700012C0764062705022018000000000000402JL180206000004 ASSIST.MEDICA MEDICA00000764pereirjr
20180200000000007662700013C0765062705022018000000000000050JL180206000004 ASSIST.MEDICA MEDICA00000765pereirjr
20180200000000007662700014C0766062705022018000000000000251JL180206000004 ASSIST.MEDICA MEDICA00000766pereirjr
20180200000000007662700015C0771062705022018000000000000051JL180206000004 ASSIST.MEDICA MEDICA00000771pereirjr
20180200000000007662700016C0772062705022018000000000000201JL180206000004 ASSIST.MEDICA MEDICA00000772pereirjr
20180200000000007662700017C0773062705022018000000000000201JL180206000004 ASSIST.MEDICA MEDICA00000773pereirjr
20180200000000007662700018C0781062705022018000000000000051JL180206000004 ASSIST.MEDICA MEDICA00000781pereirjr
20180200000000007662700019C0782062705022018000000000000100JL180206000004 ASSIST.MEDICA MEDICA00000782pereirjr
20180200000000007662700020C0783062705022018000000000000050JL180206000004 ASSIST.MEDICA MEDICA00000783pereirjr
20180200000000007662700021C0784062705022018000000000000051JL180206000004 ASSIST.MEDICA MEDICA00000784pereirjr
20180200000000007762700022C0510062705022018000000000000151JL180206000004 ASSIST.MEDICA MEDICA00000510pereirjr
20180200000000007862700023C0150062705022018000000000000050JL180206000004 ASSIST.MEDICA MEDICA00000150pereirjr
20180200000000007862700024C0151062705022018000000000000251JL180206000004 ASSIST.MEDICA MEDICA00000151pereirjr
20180200000000007862700025C0200062705022018000000000000050JL180206000004 ASSIST.MEDICA MEDICA00000200pereirjr
20180200000000007862700026C0210062705022018000000000000604JL180206000004 ASSIST.MEDICA MEDICA00000210pereirjr
20180200000000007862700027C0220062705022018000000000000151JL180206000004 ASSIST.MEDICA MEDICA00000220pereirjr
20180200000000007862700028C0250062705022018000000000000201JL180206000004 ASSIST.MEDICA MEDICA00000250pereirjr
20180200000000007862700029C0270062705022018000000000000050JL180206000004 ASSIST.MEDICA MEDICA00000270pereirjr
20180200000000007962700030C0130062705022018000000000000202JL180206000004 ASSIST.MEDICA MEDICA00000130pereirjr
20180200000000009562700031C0125062705022018000000000000452JL180206000004 ASSIST.MEDICA MEDICA00000125pereirjr
20180200000000009562700032C0126062705022018000000000001055JL180206000004 ASSIST.MEDICA MEDICA00000126pereirjr
20180200000000009562700033C0300062705022018000000000000050JL180206000004 ASSIST.MEDICA MEDICA00000300pereirjr
20180200000000009562700034C0311062705022018000000000000051JL180206000004 ASSIST.MEDICA MEDICA00000311pereirjr
20180200000000009562700035C0312062705022018000000000000151JL180206000004 ASSIST.MEDICA MEDICA00000312pereirjr
20180200000000009562700036C0313062705022018000000000000100JL180206000004 ASSIST.MEDICA MEDICA00000313pereirjr
20180200000000009562700037C0320062705022018000000000000051JL180206000004 ASSIST.MEDICA MEDICA00000320pereirjr
20180200000000009562700038C0321062705022018000000000000100JL180206000004 ASSIST.MEDICA MEDICA00000321pereirjr
20180200000000009562700039C0322062705022018000000000002814JL180206000004 ASSIST.MEDICA MEDICA00000322pereirjr
20180200000000009562700040C0323062705022018000000000000453JL180206000004 ASSIST.MEDICA MEDICA00000323pereirjr
20180200000000009562700041C0326062705022018000000000000151JL180206000004 ASSIST.MEDICA MEDICA00000326pereirjr
20180200000000009562700042C0332062705022018000000000000301JL180206000004 ASSIST.MEDICA MEDICA00000332pereirjr
20180200000000009562700043C0333062705022018000000000000101JL180206000004 ASSIST.MEDICA MEDICA00000333pereirjr
20180200000000009562700044C0342062705022018000000000000553JL180206000004 ASSIST.MEDICA MEDICA00000342pereirjr
20180200000000009562700045C0343062705022018000000000000201JL180206000004 ASSIST.MEDICA MEDICA00000343pereirjr
20180200000000009562700046C0351062705022018000000000000502JL180206000004 ASSIST.MEDICA MEDICA00000351pereirjr
20180200000000009562700047C0352062705022018000000000000151JL180206000004 ASSIST.MEDICA MEDICA00000352pereirjr
20180200000000009562700048C0400062705022018000000000000101JL180206000004 ASSIST.MEDICA MEDICA00000400pereirjr
20180200000000009562700049C0410062705022018000000000000703JL180206000004 ASSIST.MEDICA MEDICA00000410pereirjr
20180200000000009562700050C0411062705022018000000000001257JL180206000004 ASSIST.MEDICA MEDICA00000411pereirjr
20180200000000009562700051C0412062705022018000000000000854JL180206000004 ASSIST.MEDICA MEDICA00000412pereirjr
20180200000000009562700052C0413062705022018000000000000101JL180206000004 ASSIST.MEDICA MEDICA00000413pereirjr
20180200000000009562700053C0427062705022018000000000001306JL180206000004 ASSIST.MEDICA MEDICA00000427pereirjr
20180200000000009562700054C0430062705022018000000000000302JL180206000004 ASSIST.MEDICA MEDICA00000430pereirjr
20180200000000009562700055C0441062705022018000000000000352JL180206000004 ASSIST.MEDICA MEDICA00000441pereirjr
20180200000000009562700056C0442062705022018000000000000603JL180206000004 ASSIST.MEDICA MEDICA00000442pereirjr
20180200000000009562700057C0443062705022018000000000000704JL180206000004 ASSIST.MEDICA MEDICA00000443pereirjr
20180200000000009562700058C0444062705022018000000000000301JL180206000004 ASSIST.MEDICA MEDICA00000444pereirjr
20180200000000009562700059C0445062705022018000000000000201JL180206000004 ASSIST.MEDICA MEDICA00000445pereirjr
20180200000000009562700060C0452062705022018000000000001759JL180206000004 ASSIST.MEDICA MEDICA00000452pereirjr
20180200000000009562700061C0453062705022018000000000007588JL180206000004 ASSIST.MEDICA MEDICA00000453pereirjr
20180200000000009562700062C0454062705022018000000000007081JL180206000004 ASSIST.MEDICA MEDICA00000454pereirjr
20180200000000009562700063C0456062705022018000000000006232JL180206000004 ASSIST.MEDICA MEDICA00000456pereirjr
20180200000000009562700064C0457062705022018000000000000352JL180206000004 ASSIST.MEDICA MEDICA00000457pereirjr
20180200000000009562700065C0458062705022018000000000000703JL180206000004 ASSIST.MEDICA MEDICA00000458pereirjr
20180200000000009562700066C0462062705022018000000000005930JL180206000004 ASSIST.MEDICA MEDICA00000462pereirjr
20180200000000009562700067C0463062705022018000000000002613JL180206000004 ASSIST.MEDICA MEDICA00000463pereirjr
20180200000000009562700068C0464062705022018000000000000402JL180206000004 ASSIST.MEDICA MEDICA00000464pereirjr
20180200000000009562700069C0465062705022018000000000000051JL180206000004 ASSIST.MEDICA MEDICA00000465pereirjr
20180200000000009562700070C0570062705022018000000000000050JL180206000004 ASSIST.MEDICA MEDICA00000570pereirjr
20180200000000009562700071C0571062705022018000000000000101JL180206000004 ASSIST.MEDICA MEDICA00000571pereirjr
20180200000000009562700072C0572062705022018000000000000301JL180206000004 ASSIST.MEDICA MEDICA00000572pereirjr
20180200000000009562700073C0573062705022018000000000000402JL180206000004 ASSIST.MEDICA MEDICA00000573pereirjr
20180200000000009562700074C0574062705022018000000000000201JL180206000004 ASSIST.MEDICA MEDICA00000574pereirjr
20180200000000009562700075C0575062705022018000000000000352JL180206000004 ASSIST.MEDICA MEDICA00000575pereirjr
20180200000000009562700076C0576062705022018000000000000101JL180206000004 ASSIST.MEDICA MEDICA00000576pereirjr
20180200000000009562700077C0811062705022018000000000000351JL180206000004 ASSIST.MEDICA MEDICA00000811pereirjr
20180200000000009562700078C0812062705022018000000000000101JL180206000004 ASSIST.MEDICA MEDICA00000812pereirjr
20180200000000009549600079D0125049605022018000000000003840JL180206000009 Mat.Seg.Prot.p/Unifo00000125pereirjr
20180200000000007859600080D0151059605022018000000000059349JL180206000010 Comunic Geral–Cont.T00000151pereirjr
20180200000000009549900081D0342049902022018000000000183900JL180207000002 Materiais Outros    00000342santosl
20180200000000009549600082D0125049606022018000000000006840JL180207000004 Mat.Seg.Prot.p/Unifo00000125pereirjr
20180200000000009549600083C0125049606022018000000000006840JL180207000006 Mat.Seg.Prot.p/Unifo00000125pereirjr
20180200000000009549600084C0125049606022018000000000006840JL180207000006 Mat.Seg.Prot.p/Unifo00000125pereirjr
20180200000000009549600085C0125049607022018000000000024920JL180208000002 Mat.Seg.Prot.p/Unifo00000125pereirjr
20180200000000009559100086C0413059107022018000000001373645JL180208000003 Energia Eletrica    00000413pereirjr
20180200000000007662100087D0781062108022018000000000043780JL180208000004 Despesa c/Viagens/Ou00000781santosl
20180200000000007562100088D0750062108022018000000001009481JL180208000004 Despesa c/Viagens/Ou00000750santosl
20180200000000007662100089D0771062108022018000000002532072JL180208000004 Despesa c/Viagens/Ou00000771santosl
20180200000000009549600090C0125049608022018000000000026540JL180209000002 Mat.Seg.Prot.p/Unifo00000125pereirjr
20180200000000007462700091C0740062708022018000000000000098JL180209000002 ASSIST.MEDICA MEDICA00000740pereirjr
20180200000000007562700092C0750062708022018000000000000016JL180209000002 ASSIST.MEDICA MEDICA00000750pereirjr
20180200000000007562700093C0752062708022018000000000000016JL180209000002 ASSIST.MEDICA MEDICA00000752pereirjr
20180200000000007562700094C0755062708022018000000000000049JL180209000002 ASSIST.MEDICA MEDICA00000755pereirjr
20180200000000007662700095C0764062708022018000000000000131JL180209000002 ASSIST.MEDICA MEDICA00000764pereirjr
20180200000000007662700096C0765062708022018000000000000016JL180209000002 ASSIST.MEDICA MEDICA00000765pereirjr
20180200000000007662700097C0766062708022018000000000000081JL180209000002 ASSIST.MEDICA MEDICA00000766pereirjr
20180200000000007662700098C0771062708022018000000000000017JL180209000002 ASSIST.MEDICA MEDICA00000771pereirjr
20180200000000007662700099C0772062708022018000000000000065JL180209000002 ASSIST.MEDICA MEDICA00000772pereirjr
20180200000000007662700100C0773062708022018000000000000065JL180209000002 ASSIST.MEDICA MEDICA00000773pereirjr
20180200000000007662700101C0781062708022018000000000000016JL180209000002 ASSIST.MEDICA MEDICA00000781pereirjr
20180200000000007662700102C0782062708022018000000000000033JL180209000002 ASSIST.MEDICA MEDICA00000782pereirjr
20180200000000007662700103C0783062708022018000000000000016JL180209000002 ASSIST.MEDICA MEDICA00000783pereirjr
20180200000000007662700104C0784062708022018000000000000017JL180209000002 ASSIST.MEDICA MEDICA00000784pereirjr
20180200000000007762700105C0510062708022018000000000000048JL180209000002 ASSIST.MEDICA MEDICA00000510pereirjr
20180200000000007862700106C0150062708022018000000000000017JL180209000002 ASSIST.MEDICA MEDICA00000150pereirjr
20180200000000007862700107C0151062708022018000000000000081JL180209000002 ASSIST.MEDICA MEDICA00000151pereirjr
20180200000000007862700108C0200062708022018000000000000016JL180209000002 ASSIST.MEDICA MEDICA00000200pereirjr
20180200000000007862700109C0210062708022018000000000000196JL180209000002 ASSIST.MEDICA MEDICA00000210pereirjr
20180200000000007862700110C0220062708022018000000000000049JL180209000002 ASSIST.MEDICA MEDICA00000220pereirjr
20180200000000007862700111C0250062708022018000000000000065JL180209000002 ASSIST.MEDICA MEDICA00000250pereirjr
20180200000000007862700112C0270062708022018000000000000016JL180209000002 ASSIST.MEDICA MEDICA00000270pereirjr
20180200000000007962700113C0130062708022018000000000000066JL180209000002 ASSIST.MEDICA MEDICA00000130pereirjr
20180200000000009562700114C0125062708022018000000000000146JL180209000002 ASSIST.MEDICA MEDICA00000125pereirjr
20180200000000009562700115C0126062708022018000000000000342JL180209000002 ASSIST.MEDICA MEDICA00000126pereirjr
20180200000000009562700116C0300062708022018000000000000017JL180209000002 ASSIST.MEDICA MEDICA00000300pereirjr
20180200000000009562700117C0311062708022018000000000000016JL180209000002 ASSIST.MEDICA MEDICA00000311pereirjr
20180200000000009562700118C0312062708022018000000000000049JL180209000002 ASSIST.MEDICA MEDICA00000312pereirjr
20180200000000009562700119C0313062708022018000000000000032JL180209000002 ASSIST.MEDICA MEDICA00000313pereirjr
20180200000000009562700120C0320062708022018000000000000017JL180209000002 ASSIST.MEDICA MEDICA00000320pereirjr
20180200000000009562700121C0321062708022018000000000000032JL180209000002 ASSIST.MEDICA MEDICA00000321pereirjr
20180200000000009562700122C0322062708022018000000000000912JL180209000002 ASSIST.MEDICA MEDICA00000322pereirjr
20180200000000009562700123C0323062708022018000000000000147JL180209000002 ASSIST.MEDICA MEDICA00000323pereirjr
20180200000000009562700124C0326062708022018000000000000049JL180209000002 ASSIST.MEDICA MEDICA00000326pereirjr
20180200000000009562700125C0332062708022018000000000000098JL180209000002 ASSIST.MEDICA MEDICA00000332pereirjr
20180200000000009562700126C0333062708022018000000000000032JL180209000002 ASSIST.MEDICA MEDICA00000333pereirjr
20180200000000009562700127C0342062708022018000000000000179JL180209000002 ASSIST.MEDICA MEDICA00000342pereirjr
20180200000000009562700128C0343062708022018000000000000066JL180209000002 ASSIST.MEDICA MEDICA00000343pereirjr
20180200000000009562700129C0351062708022018000000000000163JL180209000002 ASSIST.MEDICA MEDICA00000351pereirjr
20180200000000009562700130C0352062708022018000000000000049JL180209000002 ASSIST.MEDICA MEDICA00000352pereirjr
20180200000000009562700131C0400062708022018000000000000032JL180209000002 ASSIST.MEDICA MEDICA00000400pereirjr
20180200000000009562700132C0410062708022018000000000000228JL180209000002 ASSIST.MEDICA MEDICA00000410pereirjr
20180200000000009562700133C0411062708022018000000000000407JL180209000002 ASSIST.MEDICA MEDICA00000411pereirjr
20180200000000009562700134C0412062708022018000000000000277JL180209000002 ASSIST.MEDICA MEDICA00000412pereirjr
20180200000000009562700135C0413062708022018000000000000033JL180209000002 ASSIST.MEDICA MEDICA00000413pereirjr
20180200000000009562700136C0427062708022018000000000000423JL180209000002 ASSIST.MEDICA MEDICA00000427pereirjr
20180200000000009562700137C0430062708022018000000000000098JL180209000002 ASSIST.MEDICA MEDICA00000430pereirjr
20180200000000009562700138C0441062708022018000000000000114JL180209000002 ASSIST.MEDICA MEDICA00000441pereirjr
20180200000000009562700139C0442062708022018000000000000196JL180209000002 ASSIST.MEDICA MEDICA00000442pereirjr
20180200000000009562700140C0443062708022018000000000000228JL180209000002 ASSIST.MEDICA MEDICA00000443pereirjr
20180200000000009562700141C0444062708022018000000000000098JL180209000002 ASSIST.MEDICA MEDICA00000444pereirjr
20180200000000009562700142C0445062708022018000000000000065JL180209000002 ASSIST.MEDICA MEDICA00000445pereirjr
20180200000000009562700143C0452062708022018000000000000570JL180209000002 ASSIST.MEDICA MEDICA00000452pereirjr
20180200000000009562700144C0453062708022018000000000002459JL180209000002 ASSIST.MEDICA MEDICA00000453pereirjr
20180200000000009562700145C0454062708022018000000000002295JL180209000002 ASSIST.MEDICA MEDICA00000454pereirjr
20180200000000009562700146C0456062708022018000000000002020JL180209000002 ASSIST.MEDICA MEDICA00000456pereirjr
20180200000000009562700147C0457062708022018000000000000114JL180209000002 ASSIST.MEDICA MEDICA00000457pereirjr
20180200000000009562700148C0458062708022018000000000000228JL180209000002 ASSIST.MEDICA MEDICA00000458pereirjr
20180200000000009562700149C0462062708022018000000000001922JL180209000002 ASSIST.MEDICA MEDICA00000462pereirjr
20180200000000009562700150C0463062708022018000000000000847JL180209000002 ASSIST.MEDICA MEDICA00000463pereirjr
20180200000000009562700151C0464062708022018000000000000130JL180209000002 ASSIST.MEDICA MEDICA00000464pereirjr
20180200000000009562700152C0465062708022018000000000000017JL180209000002 ASSIST.MEDICA MEDICA00000465pereirjr
20180200000000009562700153C0570062708022018000000000000016JL180209000002 ASSIST.MEDICA MEDICA00000570pereirjr
20180200000000009562700154C0571062708022018000000000000033JL180209000002 ASSIST.MEDICA MEDICA00000571pereirjr
20180200000000009562700155C0572062708022018000000000000097JL180209000002 ASSIST.MEDICA MEDICA00000572pereirjr
20180200000000009562700156C0573062708022018000000000000131JL180209000002 ASSIST.MEDICA MEDICA00000573pereirjr
20180200000000009562700157C0574062708022018000000000000065JL180209000002 ASSIST.MEDICA MEDICA00000574pereirjr
20180200000000009562700158C0575062708022018000000000000114JL180209000002 ASSIST.MEDICA MEDICA00000575pereirjr
20180200000000009562700159C0576062708022018000000000000032JL180209000002 ASSIST.MEDICA MEDICA00000576pereirjr
20180200000000009562700160C0811062708022018000000000000114JL180209000002 ASSIST.MEDICA MEDICA00000811pereirjr
20180200000000009562700161C0812062708022018000000000000033JL180209000002 ASSIST.MEDICA MEDICA00000812pereirjr
20180200000000009549600162C0125049609022018000000000014300JL180212000004 Mat.Seg.Prot.p/Unifo00000125pereirjr
20180200000000007462700163C0740062709022018000000000000339JL180212000004 ASSIST.MEDICA MEDICA00000740pereirjr
20180200000000007562700164C0750062709022018000000000000056JL180212000004 ASSIST.MEDICA MEDICA00000750pereirjr
20180200000000007562700165C0752062709022018000000000000057JL180212000004 ASSIST.MEDICA MEDICA00000752pereirjr
20180200000000007562700166C0755062709022018000000000000169JL180212000004 ASSIST.MEDICA MEDICA00000755pereirjr
20180200000000007662700167C0764062709022018000000000000452JL180212000004 ASSIST.MEDICA MEDICA00000764pereirjr
20180200000000007662700168C0765062709022018000000000000056JL180212000004 ASSIST.MEDICA MEDICA00000765pereirjr
20180200000000007662700169C0766062709022018000000000000283JL180212000004 ASSIST.MEDICA MEDICA00000766pereirjr
20180200000000007662700170C0771062709022018000000000000056JL180212000004 ASSIST.MEDICA MEDICA00000771pereirjr
20180200000000007662700171C0772062709022018000000000000226JL180212000004 ASSIST.MEDICA MEDICA00000772pereirjr
20180200000000007662700172C0773062709022018000000000000226JL180212000004 ASSIST.MEDICA MEDICA00000773pereirjr
20180200000000007662700173C0781062709022018000000000000057JL180212000004 ASSIST.MEDICA MEDICA00000781pereirjr
20180200000000007662700174C0782062709022018000000000000113JL180212000004 ASSIST.MEDICA MEDICA00000782pereirjr
20180200000000007662700175C0783062709022018000000000000056JL180212000004 ASSIST.MEDICA MEDICA00000783pereirjr
20180200000000007662700176C0784062709022018000000000000057JL180212000004 ASSIST.MEDICA MEDICA00000784pereirjr
20180200000000007762700177C0510062709022018000000000000170JL180212000004 ASSIST.MEDICA MEDICA00000510pereirjr
20180200000000007862700178C0150062709022018000000000000056JL180212000004 ASSIST.MEDICA MEDICA00000150pereirjr
20180200000000007862700179C0151062709022018000000000000282JL180212000004 ASSIST.MEDICA MEDICA00000151pereirjr
20180200000000007862700180C0200062709022018000000000000057JL180212000004 ASSIST.MEDICA MEDICA00000200pereirjr
20180200000000007862700181C0210062709022018000000000000678JL180212000004 ASSIST.MEDICA MEDICA00000210pereirjr
20180200000000007862700182C0220062709022018000000000000169JL180212000004 ASSIST.MEDICA MEDICA00000220pereirjr
20180200000000007862700183C0250062709022018000000000000226JL180212000004 ASSIST.MEDICA MEDICA00000250pereirjr
20180200000000007862700184C0270062709022018000000000000057JL180212000004 ASSIST.MEDICA MEDICA00000270pereirjr
20180200000000007962700185C0130062709022018000000000000226JL180212000004 ASSIST.MEDICA MEDICA00000130pereirjr
20180200000000009562700186C0125062709022018000000000000508JL180212000004 ASSIST.MEDICA MEDICA00000125pereirjr
20180200000000009562700187C0126062709022018000000000001186JL180212000004 ASSIST.MEDICA MEDICA00000126pereirjr
20180200000000009562700188C0300062709022018000000000000056JL180212000004 ASSIST.MEDICA MEDICA00000300pereirjr
20180200000000009562700189C0311062709022018000000000000057JL180212000004 ASSIST.MEDICA MEDICA00000311pereirjr
20180200000000009562700190C0312062709022018000000000000169JL180212000004 ASSIST.MEDICA MEDICA00000312pereirjr
20180200000000009562700191C0313062709022018000000000000113JL180212000004 ASSIST.MEDICA MEDICA00000313pereirjr
20180200000000009562700192C0320062709022018000000000000057JL180212000004 ASSIST.MEDICA MEDICA00000320pereirjr
20180200000000009562700193C0321062709022018000000000000113JL180212000004 ASSIST.MEDICA MEDICA00000321pereirjr
20180200000000009562700194C0322062709022018000000000003162JL180212000004 ASSIST.MEDICA MEDICA00000322pereirjr
20180200000000009562700195C0323062709022018000000000000508JL180212000004 ASSIST.MEDICA MEDICA00000323pereirjr
20180200000000009562700196C0326062709022018000000000000169JL180212000004 ASSIST.MEDICA MEDICA00000326pereirjr
20180200000000009562700197C0332062709022018000000000000339JL180212000004 ASSIST.MEDICA MEDICA00000332pereirjr
20180200000000009562700198C0333062709022018000000000000113JL180212000004 ASSIST.MEDICA MEDICA00000333pereirjr
20180200000000009562700199C0342062709022018000000000000621JL180212000004 ASSIST.MEDICA MEDICA00000342pereirjr
20180200000000009562700200C0343062709022018000000000000226JL180212000004 ASSIST.MEDICA MEDICA00000343pereirjr
20180200000000009562700201C0351062709022018000000000000565JL180212000004 ASSIST.MEDICA MEDICA00000351pereirjr
20180200000000009562700202C0352062709022018000000000000170JL180212000004 ASSIST.MEDICA MEDICA00000352pereirjr
20180200000000009562700203C0400062709022018000000000000113JL180212000004 ASSIST.MEDICA MEDICA00000400pereirjr
20180200000000009562700204C0410062709022018000000000000790JL180212000004 ASSIST.MEDICA MEDICA00000410pereirjr
20180200000000009562700205C0411062709022018000000000001412JL180212000004 ASSIST.MEDICA MEDICA00000411pereirjr
20180200000000009562700206C0412062709022018000000000000960JL180212000004 ASSIST.MEDICA MEDICA00000412pereirjr
20180200000000009562700207C0413062709022018000000000000113JL180212000004 ASSIST.MEDICA MEDICA00000413pereirjr
20180200000000009562700208C0427062709022018000000000001468JL180212000004 ASSIST.MEDICA MEDICA00000427pereirjr
20180200000000009562700209C0430062709022018000000000000338JL180212000004 ASSIST.MEDICA MEDICA00000430pereirjr
20180200000000009562700210C0441062709022018000000000000395JL180212000004 ASSIST.MEDICA MEDICA00000441pereirjr
20180200000000009562700211C0442062709022018000000000000678JL180212000004 ASSIST.MEDICA MEDICA00000442pereirjr
20180200000000009562700212C0443062709022018000000000000790JL180212000004 ASSIST.MEDICA MEDICA00000443pereirjr
20180200000000009562700213C0444062709022018000000000000339JL180212000004 ASSIST.MEDICA MEDICA00000444pereirjr
20180200000000009562700214C0445062709022018000000000000226JL180212000004 ASSIST.MEDICA MEDICA00000445pereirjr
20180200000000009562700215C0452062709022018000000000001976JL180212000004 ASSIST.MEDICA MEDICA00000452pereirjr
20180200000000009562700216C0453062709022018000000000008525JL180212000004 ASSIST.MEDICA MEDICA00000453pereirjr
20180200000000009562700217C0454062709022018000000000007956JL180212000004 ASSIST.MEDICA MEDICA00000454pereirjr
20180200000000009562700218C0456062709022018000000000007001JL180212000004 ASSIST.MEDICA MEDICA00000456pereirjr
20180200000000009562700219C0457062709022018000000000000395JL180212000004 ASSIST.MEDICA MEDICA00000457pereirjr
20180200000000009562700220C0458062709022018000000000000791JL180212000004 ASSIST.MEDICA MEDICA00000458pereirjr
20180200000000009562700221C0462062709022018000000000006662JL180212000004 ASSIST.MEDICA MEDICA00000462pereirjr
20180200000000009562700222C0463062709022018000000000002936JL180212000004 ASSIST.MEDICA MEDICA00000463pereirjr
20180200000000009562700223C0464062709022018000000000000452JL180212000004 ASSIST.MEDICA MEDICA00000464pereirjr
20180200000000009562700224C0465062709022018000000000000057JL180212000004 ASSIST.MEDICA MEDICA00000465pereirjr
20180200000000009562700225C0570062709022018000000000000056JL180212000004 ASSIST.MEDICA MEDICA00000570pereirjr
20180200000000009562700226C0571062709022018000000000000113JL180212000004 ASSIST.MEDICA MEDICA00000571pereirjr
20180200000000009562700227C0572062709022018000000000000339JL180212000004 ASSIST.MEDICA MEDICA00000572pereirjr
20180200000000009562700228C0573062709022018000000000000451JL180212000004 ASSIST.MEDICA MEDICA00000573pereirjr
20180200000000009562700229C0574062709022018000000000000227JL180212000004 ASSIST.MEDICA MEDICA00000574pereirjr
20180200000000009562700230C0575062709022018000000000000395JL180212000004 ASSIST.MEDICA MEDICA00000575pereirjr
20180200000000009562700231C0576062709022018000000000000113JL180212000004 ASSIST.MEDICA MEDICA00000576pereirjr
20180200000000009562700232C0811062709022018000000000000395JL180212000004 ASSIST.MEDICA MEDICA00000811pereirjr
20180200000000009562700233C0812062709022018000000000000113JL180212000004 ASSIST.MEDICA MEDICA00000812pereirjr
20180200000000007862100234D0200062113022018000000000008180JL180213000001 Despesa c/Viagens/Ou00000200santosl
20180200000000007662100235D0762062113022018000000000371216JL180213000001 Despesa c/Viagens/Ou00000762santosl
20180200000000007462100236D0740062113022018000000001119811JL180213000001 Despesa c/Viagens/Ou00000740santosl
20180200000000007462100237D0740062113022018000000000006090JL180213000001 Despesa c/Viagens/Ou00000740santosl
20180200000000007462100238D0740062113022018000000000148330JL180213000001 Despesa c/Viagens/Ou00000740santosl
20180200000000007662100239D0761062113022018000000000168393JL180213000001 Despesa c/Viagens/Ou00000761santosl
20180200000000007662100240D0772062113022018000000000073945JL180213000001 Despesa c/Viagens/Ou00000772santosl
20180200000000007662100241D0781062113022018000000000075062JL180213000001 Despesa c/Viagens/Ou00000781santosl
20180200000000007877700242D0210077712022018000000000002600JL180213000004 Impostos-Taxas Munic00000210santosl
20180200000000007863500243D0210063512022018000000000036375JL180213000004 Desp.Cartorios/Livro00000210santosl
20180200000000007662100244D0772062112022018000000000406654JL180213000004 Despesa c/Viagens/Ou00000772santosl
20180200000000007662100245D0782062112022018000000000007450JL180213000004 Despesa c/Viagens/Ou00000782santosl
20180200000000007862100246D0210062112022018000000000008340JL180213000004 Despesa c/Viagens/Ou00000210santosl
20180200000000009562100247D0453062112022018000000000017636JL180213000004 Despesa c/Viagens/Ou00000453santosl
20180200000000009562100248D0332062112022018000000000380581JL180213000004 Despesa c/Viagens/Ou00000332santosl
20180200000000007662100249D0768062112022018000000000845562JL180213000004 Despesa c/Viagens/Ou00000768santosl
20180200000000009541100250C0463041114022018000000000115203JL180214000002 vr nfe-2.585 importa00000463marzolpr
20180200000000009541100251C0454041114022018000000000930489JL180214000002 vr nfe-2.593 importa00000454marzolpr
20180200000000009541100252D0463041114022018000000000098141JL180214000002 vr nfe-2.606 importa00000463marzolpr
20180200000000009550100253D0311050114022018000000000219057JL180214000002 vr nfe-2.621 importa00000311marzolpr
20180200000000009562100254D0125062114022018000000000788055JL180215000001 Despesa c/Viagens/Ou00000125pereirjr
20180200000000007662100255D0761062114022018000000000041512JL180215000001 Despesa c/Viagens/Ou00000761pereirjr
20180200000000007462100256D0740062114022018000000000098866JL180215000001 Despesa c/Viagens/Ou00000740pereirjr
20180200000000007562100257D0750062114022018000000000012200JL180215000001 Despesa c/Viagens/Ou00000750pereirjr
20180200000000007662100258D0768062114022018000000000078266JL180215000001 Despesa c/Viagens/Ou00000768pereirjr
20180200000000007662100259D0769062114022018000000000053073JL180215000001 Despesa c/Viagens/Ou00000769pereirjr
20180200000000007859600260D0151059614022018000000000006034JL180215000002 Comunic Geral–Cont.T00000151pereirjr
20180200000000009549600261C0125049614022018000000000034782JL180215000003 Mat.Seg.Prot.p/Unifo00000125pereirjr
20180200000000007462700262C0740062714022018000000000000281JL180215000003 ASSIST.MEDICA MEDICA00000740pereirjr
20180200000000007562700263C0750062714022018000000000000047JL180215000003 ASSIST.MEDICA MEDICA00000750pereirjr
20180200000000007562700264C0752062714022018000000000000047JL180215000003 ASSIST.MEDICA MEDICA00000752pereirjr
20180200000000007562700265C0755062714022018000000000000140JL180215000003 ASSIST.MEDICA MEDICA00000755pereirjr
20180200000000007662700266C0764062714022018000000000000375JL180215000003 ASSIST.MEDICA MEDICA00000764pereirjr
20180200000000007662700267C0765062714022018000000000000047JL180215000003 ASSIST.MEDICA MEDICA00000765pereirjr
20180200000000007662700268C0766062714022018000000000000234JL180215000003 ASSIST.MEDICA MEDICA00000766pereirjr
20180200000000007662700269C0771062714022018000000000000047JL180215000003 ASSIST.MEDICA MEDICA00000771pereirjr
20180200000000007662700270C0772062714022018000000000000187JL180215000003 ASSIST.MEDICA MEDICA00000772pereirjr
20180200000000007662700271C0773062714022018000000000000188JL180215000003 ASSIST.MEDICA MEDICA00000773pereirjr
20180200000000007662700272C0781062714022018000000000000047JL180215000003 ASSIST.MEDICA MEDICA00000781pereirjr
20180200000000007662700273C0782062714022018000000000000094JL180215000003 ASSIST.MEDICA MEDICA00000782pereirjr
20180200000000007662700274C0783062714022018000000000000047JL180215000003 ASSIST.MEDICA MEDICA00000783pereirjr
20180200000000007662700275C0784062714022018000000000000046JL180215000003 ASSIST.MEDICA MEDICA00000784pereirjr
20180200000000007762700276C0510062714022018000000000000141JL180215000003 ASSIST.MEDICA MEDICA00000510pereirjr
20180200000000007862700277C0150062714022018000000000000047JL180215000003 ASSIST.MEDICA MEDICA00000150pereirjr
20180200000000007862700278C0151062714022018000000000000234JL180215000003 ASSIST.MEDICA MEDICA00000151pereirjr
20180200000000007862700279C0200062714022018000000000000047JL180215000003 ASSIST.MEDICA MEDICA00000200pereirjr
20180200000000007862700280C0210062714022018000000000000562JL180215000003 ASSIST.MEDICA MEDICA00000210pereirjr
20180200000000007862700281C0220062714022018000000000000141JL180215000003 ASSIST.MEDICA MEDICA00000220pereirjr
20180200000000007862700282C0250062714022018000000000000187JL180215000003 ASSIST.MEDICA MEDICA00000250pereirjr
20180200000000007862700283C0270062714022018000000000000047JL180215000003 ASSIST.MEDICA MEDICA00000270pereirjr
20180200000000007962700284C0130062714022018000000000000188JL180215000003 ASSIST.MEDICA MEDICA00000130pereirjr
20180200000000009562700285C0125062714022018000000000000421JL180215000003 ASSIST.MEDICA MEDICA00000125pereirjr
20180200000000009562700286C0126062714022018000000000000984JL180215000003 ASSIST.MEDICA MEDICA00000126pereirjr
20180200000000009562700287C0300062714022018000000000000047JL180215000003 ASSIST.MEDICA MEDICA00000300pereirjr
20180200000000009562700288C0311062714022018000000000000047JL180215000003 ASSIST.MEDICA MEDICA00000311pereirjr
20180200000000009562700289C0312062714022018000000000000140JL180215000003 ASSIST.MEDICA MEDICA00000312pereirjr
20180200000000009562700290C0313062714022018000000000000094JL180215000003 ASSIST.MEDICA MEDICA00000313pereirjr
20180200000000009562700291C0320062714022018000000000000047JL180215000003 ASSIST.MEDICA MEDICA00000320pereirjr
20180200000000009562700292C0321062714022018000000000000094JL180215000003 ASSIST.MEDICA MEDICA00000321pereirjr
20180200000000009562700293C0322062714022018000000000002622JL180215000003 ASSIST.MEDICA MEDICA00000322pereirjr
20180200000000009562700294C0323062714022018000000000000422JL180215000003 ASSIST.MEDICA MEDICA00000323pereirjr
20180200000000009562700295C0326062714022018000000000000141JL180215000003 ASSIST.MEDICA MEDICA00000326pereirjr
20180200000000009562700296C0332062714022018000000000000281JL180215000003 ASSIST.MEDICA MEDICA00000332pereirjr
20180200000000009562700297C0333062714022018000000000000093JL180215000003 ASSIST.MEDICA MEDICA00000333pereirjr
20180200000000009562700298C0342062714022018000000000000516JL180215000003 ASSIST.MEDICA MEDICA00000342pereirjr
20180200000000009562700299C0343062714022018000000000000187JL180215000003 ASSIST.MEDICA MEDICA00000343pereirjr
20180200000000009562700300C0351062714022018000000000000469JL180215000003 ASSIST.MEDICA MEDICA00000351pereirjr
20180200000000009562700301C0352062714022018000000000000140JL180215000003 ASSIST.MEDICA MEDICA00000352pereirjr
20180200000000009562700302C0400062714022018000000000000094JL180215000003 ASSIST.MEDICA MEDICA00000400pereirjr
20180200000000009562700303C0410062714022018000000000000656JL180215000003 ASSIST.MEDICA MEDICA00000410pereirjr
20180200000000009562700304C0411062714022018000000000001171JL180215000003 ASSIST.MEDICA MEDICA00000411pereirjr
20180200000000009562700305C0412062714022018000000000000796JL180215000003 ASSIST.MEDICA MEDICA00000412pereirjr
20180200000000009562700306C0413062714022018000000000000094JL180215000003 ASSIST.MEDICA MEDICA00000413pereirjr
20180200000000009562700307C0427062714022018000000000001218JL180215000003 ASSIST.MEDICA MEDICA00000427pereirjr
20180200000000009562700308C0430062714022018000000000000280JL180215000003 ASSIST.MEDICA MEDICA00000430pereirjr
20180200000000009562700309C0441062714022018000000000000328JL180215000003 ASSIST.MEDICA MEDICA00000441pereirjr
20180200000000009562700310C0442062714022018000000000000562JL180215000003 ASSIST.MEDICA MEDICA00000442pereirjr
20180200000000009562700311C0443062714022018000000000000656JL180215000003 ASSIST.MEDICA MEDICA00000443pereirjr
20180200000000009562700312C0444062714022018000000000000281JL180215000003 ASSIST.MEDICA MEDICA00000444pereirjr
20180200000000009562700313C0445062714022018000000000000187JL180215000003 ASSIST.MEDICA MEDICA00000445pereirjr
20180200000000009562700314C0452062714022018000000000001640JL180215000003 ASSIST.MEDICA MEDICA00000452pereirjr
20180200000000009562700315C0453062714022018000000000007072JL180215000003 ASSIST.MEDICA MEDICA00000453pereirjr
20180200000000009562700316C0454062714022018000000000006599JL180215000003 ASSIST.MEDICA MEDICA00000454pereirjr
20180200000000009562700317C0456062714022018000000000005808JL180215000003 ASSIST.MEDICA MEDICA00000456pereirjr
20180200000000009562700318C0457062714022018000000000000328JL180215000003 ASSIST.MEDICA MEDICA00000457pereirjr
20180200000000009562700319C0458062714022018000000000000655JL180215000003 ASSIST.MEDICA MEDICA00000458pereirjr
20180200000000009562700320C0462062714022018000000000005527JL180215000003 ASSIST.MEDICA MEDICA00000462pereirjr
20180200000000009562700321C0463062714022018000000000002435JL180215000003 ASSIST.MEDICA MEDICA00000463pereirjr
20180200000000009562700322C0464062714022018000000000000375JL180215000003 ASSIST.MEDICA MEDICA00000464pereirjr
20180200000000009562700323C0465062714022018000000000000047JL180215000003 ASSIST.MEDICA MEDICA00000465pereirjr
20180200000000009562700324C0570062714022018000000000000047JL180215000003 ASSIST.MEDICA MEDICA00000570pereirjr
20180200000000009562700325C0571062714022018000000000000094JL180215000003 ASSIST.MEDICA MEDICA00000571pereirjr
20180200000000009562700326C0572062714022018000000000000281JL180215000003 ASSIST.MEDICA MEDICA00000572pereirjr
20180200000000009562700327C0573062714022018000000000000374JL180215000003 ASSIST.MEDICA MEDICA00000573pereirjr
20180200000000009562700328C0574062714022018000000000000188JL180215000003 ASSIST.MEDICA MEDICA00000574pereirjr
20180200000000009562700329C0575062714022018000000000000328JL180215000003 ASSIST.MEDICA MEDICA00000575pereirjr
20180200000000009562700330C0576062714022018000000000000093JL180215000003 ASSIST.MEDICA MEDICA00000576pereirjr
20180200000000009562700331C0811062714022018000000000000328JL180215000003 ASSIST.MEDICA MEDICA00000811pereirjr
20180200000000009562700332C0812062714022018000000000000094JL180215000003 ASSIST.MEDICA MEDICA00000812pereirjr
20180200000000009562100333D0811062115022018000000000010924JL180215000007 Despesa c/Viagens/Ou00000811santosl
20180200000000007462100334D0740062115022018000000000203729JL180215000007 Despesa c/Viagens/Ou00000740santosl
20180200000000007462100335D0740062115022018000000000008820JL180215000007 Despesa c/Viagens/Ou00000740santosl
20180200000000007662100336D0768062115022018000000001084602JL180215000007 Despesa c/Viagens/Ou00000768santosl
20180200000000009549600337C0125049615022018000000000052124JL180216000002 Mat.Seg.Prot.p/Unifo00000125pereirjr
20180200000000009562100338D0442062115022018000000000014853JL180216000005 Despesa c/Viagens/Ou00000442santosl
20180200000000009562100339D0811062115022018000000000007600JL180216000005 Despesa c/Viagens/Ou00000811santosl
20180200000000007862100340D0210062115022018000000000018752JL180216000005 Despesa c/Viagens/Ou00000210santosl
20180200000000009562100341D0570062115022018000000000019050JL180216000005 Despesa c/Viagens/Ou00000570santosl
20180200000000009549600342C0125049616022018000000000011960JL180219000002 Mat.Seg.Prot.p/Unifo00000125pereirjr
20180200000000007859100343D0100059119022018000000000022503JL180220000001 Energia Eletrica    00000100pereirjr
20180200000000007462700344C0740062719022018000000000000359JL180220000002 ASSIST.MEDICA MEDICA00000740pereirjr
20180200000000007562700345C0750062719022018000000000000059JL180220000002 ASSIST.MEDICA MEDICA00000750pereirjr
20180200000000007562700346C0752062719022018000000000000060JL180220000002 ASSIST.MEDICA MEDICA00000752pereirjr
20180200000000007562700347C0755062719022018000000000000180JL180220000002 ASSIST.MEDICA MEDICA00000755pereirjr
20180200000000007662700348C0764062719022018000000000000478JL180220000002 ASSIST.MEDICA MEDICA00000764pereirjr
20180200000000007662700349C0765062719022018000000000000060JL180220000002 ASSIST.MEDICA MEDICA00000765pereirjr
20180200000000007662700350C0766062719022018000000000000299JL180220000002 ASSIST.MEDICA MEDICA00000766pereirjr
20180200000000007662700351C0771062719022018000000000000060JL180220000002 ASSIST.MEDICA MEDICA00000771pereirjr
20180200000000007662700352C0772062719022018000000000000239JL180220000002 ASSIST.MEDICA MEDICA00000772pereirjr
20180200000000007662700353C0773062719022018000000000000239JL180220000002 ASSIST.MEDICA MEDICA00000773pereirjr
20180200000000007662700354C0781062719022018000000000000060JL180220000002 ASSIST.MEDICA MEDICA00000781pereirjr
20180200000000007662700355C0782062719022018000000000000120JL180220000002 ASSIST.MEDICA MEDICA00000782pereirjr
20180200000000007662700356C0783062719022018000000000000060JL180220000002 ASSIST.MEDICA MEDICA00000783pereirjr
20180200000000007662700357C0784062719022018000000000000060JL180220000002 ASSIST.MEDICA MEDICA00000784pereirjr
20180200000000007762700358C0510062719022018000000000000179JL180220000002 ASSIST.MEDICA MEDICA00000510pereirjr
20180200000000007862700359C0150062719022018000000000000060JL180220000002 ASSIST.MEDICA MEDICA00000150pereirjr
20180200000000007862700360C0151062719022018000000000000299JL180220000002 ASSIST.MEDICA MEDICA00000151pereirjr
20180200000000007862700361C0200062719022018000000000000060JL180220000002 ASSIST.MEDICA MEDICA00000200pereirjr
20180200000000007862700362C0210062719022018000000000000717JL180220000002 ASSIST.MEDICA MEDICA00000210pereirjr
20180200000000007862700363C0220062719022018000000000000180JL180220000002 ASSIST.MEDICA MEDICA00000220pereirjr
20180200000000007862700364C0250062719022018000000000000239JL180220000002 ASSIST.MEDICA MEDICA00000250pereirjr
20180200000000007862700365C0270062719022018000000000000060JL180220000002 ASSIST.MEDICA MEDICA00000270pereirjr
20180200000000007962700366C0130062719022018000000000000240JL180220000002 ASSIST.MEDICA MEDICA00000130pereirjr
20180200000000009562700367C0125062719022018000000000000538JL180220000002 ASSIST.MEDICA MEDICA00000125pereirjr
20180200000000009562700368C0126062719022018000000000001255JL180220000002 ASSIST.MEDICA MEDICA00000126pereirjr
20180200000000009562700369C0300062719022018000000000000060JL180220000002 ASSIST.MEDICA MEDICA00000300pereirjr
20180200000000009562700370C0311062719022018000000000000060JL180220000002 ASSIST.MEDICA MEDICA00000311pereirjr
20180200000000009562700371C0312062719022018000000000000179JL180220000002 ASSIST.MEDICA MEDICA00000312pereirjr
20180200000000009562700372C0313062719022018000000000000120JL180220000002 ASSIST.MEDICA MEDICA00000313pereirjr
20180200000000009562700373C0320062719022018000000000000060JL180220000002 ASSIST.MEDICA MEDICA00000320pereirjr
20180200000000009562700374C0321062719022018000000000000120JL180220000002 ASSIST.MEDICA MEDICA00000321pereirjr
20180200000000009562700375C0322062719022018000000000003348JL180220000002 ASSIST.MEDICA MEDICA00000322pereirjr
20180200000000009562700376C0323062719022018000000000000538JL180220000002 ASSIST.MEDICA MEDICA00000323pereirjr
20180200000000009562700377C0326062719022018000000000000179JL180220000002 ASSIST.MEDICA MEDICA00000326pereirjr
20180200000000009562700378C0332062719022018000000000000359JL180220000002 ASSIST.MEDICA MEDICA00000332pereirjr
20180200000000009562700379C0333062719022018000000000000120JL180220000002 ASSIST.MEDICA MEDICA00000333pereirjr
20180200000000009562700380C0342062719022018000000000000658JL180220000002 ASSIST.MEDICA MEDICA00000342pereirjr
20180200000000009562700381C0343062719022018000000000000239JL180220000002 ASSIST.MEDICA MEDICA00000343pereirjr
20180200000000009562700382C0351062719022018000000000000598JL180220000002 ASSIST.MEDICA MEDICA00000351pereirjr
20180200000000009562700383C0352062719022018000000000000180JL180220000002 ASSIST.MEDICA MEDICA00000352pereirjr
20180200000000009562700384C0400062719022018000000000000119JL180220000002 ASSIST.MEDICA MEDICA00000400pereirjr
20180200000000009562700385C0410062719022018000000000000837JL180220000002 ASSIST.MEDICA MEDICA00000410pereirjr
20180200000000009562700386C0411062719022018000000000001495JL180220000002 ASSIST.MEDICA MEDICA00000411pereirjr
20180200000000009562700387C0412062719022018000000000001016JL180220000002 ASSIST.MEDICA MEDICA00000412pereirjr
20180200000000009562700388C0413062719022018000000000000120JL180220000002 ASSIST.MEDICA MEDICA00000413pereirjr
20180200000000009562700389C0427062719022018000000000001554JL180220000002 ASSIST.MEDICA MEDICA00000427pereirjr
20180200000000009562700390C0430062719022018000000000000359JL180220000002 ASSIST.MEDICA MEDICA00000430pereirjr
20180200000000009562700391C0441062719022018000000000000418JL180220000002 ASSIST.MEDICA MEDICA00000441pereirjr
20180200000000009562700392C0442062719022018000000000000718JL180220000002 ASSIST.MEDICA MEDICA00000442pereirjr
20180200000000009562700393C0443062719022018000000000000837JL180220000002 ASSIST.MEDICA MEDICA00000443pereirjr
20180200000000009562700394C0444062719022018000000000000358JL180220000002 ASSIST.MEDICA MEDICA00000444pereirjr
20180200000000009562700395C0445062719022018000000000000240JL180220000002 ASSIST.MEDICA MEDICA00000445pereirjr
20180200000000009562700396C0452062719022018000000000002092JL180220000002 ASSIST.MEDICA MEDICA00000452pereirjr
20180200000000009562700397C0453062719022018000000000009028JL180220000002 ASSIST.MEDICA MEDICA00000453pereirjr
20180200000000009562700398C0454062719022018000000000008424JL180220000002 ASSIST.MEDICA MEDICA00000454pereirjr
20180200000000009562700399C0456062719022018000000000007413JL180220000002 ASSIST.MEDICA MEDICA00000456pereirjr
20180200000000009562700400C0457062719022018000000000000419JL180220000002 ASSIST.MEDICA MEDICA00000457pereirjr
20180200000000009562700401C0458062719022018000000000000837JL180220000002 ASSIST.MEDICA MEDICA00000458pereirjr
20180200000000009562700402C0462062719022018000000000007055JL180220000002 ASSIST.MEDICA MEDICA00000462pereirjr
20180200000000009562700403C0463062719022018000000000003109JL180220000002 ASSIST.MEDICA MEDICA00000463pereirjr
20180200000000009562700404C0464062719022018000000000000478JL180220000002 ASSIST.MEDICA MEDICA00000464pereirjr
20180200000000009562700405C0465062719022018000000000000060JL180220000002 ASSIST.MEDICA MEDICA00000465pereirjr
20180200000000009562700406C0570062719022018000000000000060JL180220000002 ASSIST.MEDICA MEDICA00000570pereirjr
20180200000000009562700407C0571062719022018000000000000119JL180220000002 ASSIST.MEDICA MEDICA00000571pereirjr
20180200000000009562700408C0572062719022018000000000000359JL180220000002 ASSIST.MEDICA MEDICA00000572pereirjr
20180200000000009562700409C0573062719022018000000000000478JL180220000002 ASSIST.MEDICA MEDICA00000573pereirjr
20180200000000009562700410C0574062719022018000000000000240JL180220000002 ASSIST.MEDICA MEDICA00000574pereirjr
20180200000000009562700411C0575062719022018000000000000418JL180220000002 ASSIST.MEDICA MEDICA00000575pereirjr
20180200000000009562700412C0576062719022018000000000000120JL180220000002 ASSIST.MEDICA MEDICA00000576pereirjr
20180200000000009562700413C0811062719022018000000000000418JL180220000002 ASSIST.MEDICA MEDICA00000811pereirjr
20180200000000009562700414C0812062719022018000000000000120JL180220000002 ASSIST.MEDICA MEDICA00000812pereirjr
20180200000000009562100415D0410062122022018000000000010431JL180222000001 Despesa c/Viagens/Ou00000410santosl
20180200000000009549600416C0125049621022018000000000007120JL180222000003 Mat.Seg.Prot.p/Unifo00000125pereirjr
20180200000000009578700417D0332078722022018000000000180312JL180223000001 Impostos-Taxas Feder00000332pereirjr
20180200000000009549600418C0125049622022018000000000004120JL180223000002 Mat.Seg.Prot.p/Unifo00000125pereirjr
20180200000000009549600419C0125049623022018000000000007120JL180226000003 Mat.Seg.Prot.p/Unifo00000125pereirjr
20180200000000007462700420C0740062723022018000000000000301JL180226000003 ASSIST.MEDICA MEDICA00000740pereirjr
20180200000000007562700421C0750062723022018000000000000051JL180226000003 ASSIST.MEDICA MEDICA00000750pereirjr
20180200000000007562700422C0752062723022018000000000000050JL180226000003 ASSIST.MEDICA MEDICA00000752pereirjr
20180200000000007562700423C0755062723022018000000000000151JL180226000003 ASSIST.MEDICA MEDICA00000755pereirjr
20180200000000007662700424C0764062723022018000000000000402JL180226000003 ASSIST.MEDICA MEDICA00000764pereirjr
20180200000000007662700425C0765062723022018000000000000050JL180226000003 ASSIST.MEDICA MEDICA00000765pereirjr
20180200000000007662700426C0766062723022018000000000000251JL180226000003 ASSIST.MEDICA MEDICA00000766pereirjr
20180200000000007662700427C0771062723022018000000000000050JL180226000003 ASSIST.MEDICA MEDICA00000771pereirjr
20180200000000007662700428C0772062723022018000000000000201JL180226000003 ASSIST.MEDICA MEDICA00000772pereirjr
20180200000000007662700429C0773062723022018000000000000201JL180226000003 ASSIST.MEDICA MEDICA00000773pereirjr
20180200000000007662700430C0781062723022018000000000000051JL180226000003 ASSIST.MEDICA MEDICA00000781pereirjr
20180200000000007662700431C0782062723022018000000000000100JL180226000003 ASSIST.MEDICA MEDICA00000782pereirjr
20180200000000007662700432C0783062723022018000000000000051JL180226000003 ASSIST.MEDICA MEDICA00000783pereirjr
20180200000000007662700433C0784062723022018000000000000050JL180226000003 ASSIST.MEDICA MEDICA00000784pereirjr
20180200000000007762700434C0510062723022018000000000000151JL180226000003 ASSIST.MEDICA MEDICA00000510pereirjr
20180200000000007862700435C0150062723022018000000000000050JL180226000003 ASSIST.MEDICA MEDICA00000150pereirjr
20180200000000007862700436C0151062723022018000000000000251JL180226000003 ASSIST.MEDICA MEDICA00000151pereirjr
20180200000000007862700437C0200062723022018000000000000050JL180226000003 ASSIST.MEDICA MEDICA00000200pereirjr
20180200000000007862700438C0210062723022018000000000000603JL180226000003 ASSIST.MEDICA MEDICA00000210pereirjr
20180200000000007862700439C0220062723022018000000000000151JL180226000003 ASSIST.MEDICA MEDICA00000220pereirjr
20180200000000007862700440C0250062723022018000000000000201JL180226000003 ASSIST.MEDICA MEDICA00000250pereirjr
20180200000000007862700441C0270062723022018000000000000051JL180226000003 ASSIST.MEDICA MEDICA00000270pereirjr
20180200000000007962700442C0130062723022018000000000000201JL180226000003 ASSIST.MEDICA MEDICA00000130pereirjr
20180200000000009562700443C0125062723022018000000000000452JL180226000003 ASSIST.MEDICA MEDICA00000125pereirjr
20180200000000009562700444C0126062723022018000000000001054JL180226000003 ASSIST.MEDICA MEDICA00000126pereirjr
20180200000000009562700445C0300062723022018000000000000051JL180226000003 ASSIST.MEDICA MEDICA00000300pereirjr
20180200000000009562700446C0311062723022018000000000000050JL180226000003 ASSIST.MEDICA MEDICA00000311pereirjr
20180200000000009562700447C0312062723022018000000000000151JL180226000003 ASSIST.MEDICA MEDICA00000312pereirjr
20180200000000009562700448C0313062723022018000000000000100JL180226000003 ASSIST.MEDICA MEDICA00000313pereirjr
20180200000000009562700449C0320062723022018000000000000051JL180226000003 ASSIST.MEDICA MEDICA00000320pereirjr
20180200000000009562700450C0321062723022018000000000000100JL180226000003 ASSIST.MEDICA MEDICA00000321pereirjr
20180200000000009562700451C0322062723022018000000000002813JL180226000003 ASSIST.MEDICA MEDICA00000322pereirjr
20180200000000009562700452C0323062723022018000000000000452JL180226000003 ASSIST.MEDICA MEDICA00000323pereirjr
20180200000000009562700453C0326062723022018000000000000151JL180226000003 ASSIST.MEDICA MEDICA00000326pereirjr
20180200000000009562700454C0332062723022018000000000000301JL180226000003 ASSIST.MEDICA MEDICA00000332pereirjr
20180200000000009562700455C0333062723022018000000000000101JL180226000003 ASSIST.MEDICA MEDICA00000333pereirjr
20180200000000009562700456C0342062723022018000000000000553JL180226000003 ASSIST.MEDICA MEDICA00000342pereirjr
20180200000000009562700457C0343062723022018000000000000201JL180226000003 ASSIST.MEDICA MEDICA00000343pereirjr
20180200000000009562700458C0351062723022018000000000000502JL180226000003 ASSIST.MEDICA MEDICA00000351pereirjr
20180200000000009562700459C0352062723022018000000000000151JL180226000003 ASSIST.MEDICA MEDICA00000352pereirjr
20180200000000009562700460C0400062723022018000000000000101JL180226000003 ASSIST.MEDICA MEDICA00000400pereirjr
20180200000000009562700461C0410062723022018000000000000703JL180226000003 ASSIST.MEDICA MEDICA00000410pereirjr
20180200000000009562700462C0411062723022018000000000001255JL180226000003 ASSIST.MEDICA MEDICA00000411pereirjr
20180200000000009562700463C0412062723022018000000000000854JL180226000003 ASSIST.MEDICA MEDICA00000412pereirjr
20180200000000009562700464C0413062723022018000000000000101JL180226000003 ASSIST.MEDICA MEDICA00000413pereirjr
20180200000000009562700465C0427062723022018000000000001306JL180226000003 ASSIST.MEDICA MEDICA00000427pereirjr
20180200000000009562700466C0430062723022018000000000000301JL180226000003 ASSIST.MEDICA MEDICA00000430pereirjr
20180200000000009562700467C0441062723022018000000000000352JL180226000003 ASSIST.MEDICA MEDICA00000441pereirjr
20180200000000009562700468C0442062723022018000000000000603JL180226000003 ASSIST.MEDICA MEDICA00000442pereirjr
20180200000000009562700469C0443062723022018000000000000703JL180226000003 ASSIST.MEDICA MEDICA00000443pereirjr
20180200000000009562700470C0444062723022018000000000000301JL180226000003 ASSIST.MEDICA MEDICA00000444pereirjr
20180200000000009562700471C0445062723022018000000000000201JL180226000003 ASSIST.MEDICA MEDICA00000445pereirjr
20180200000000009562700472C0452062723022018000000000001759JL180226000003 ASSIST.MEDICA MEDICA00000452pereirjr
20180200000000009562700473C0453062723022018000000000007584JL180226000003 ASSIST.MEDICA MEDICA00000453pereirjr
20180200000000009562700474C0454062723022018000000000007077JL180226000003 ASSIST.MEDICA MEDICA00000454pereirjr
20180200000000009562700475C0456062723022018000000000006229JL180226000003 ASSIST.MEDICA MEDICA00000456pereirjr
20180200000000009562700476C0457062723022018000000000000351JL180226000003 ASSIST.MEDICA MEDICA00000457pereirjr
20180200000000009562700477C0458062723022018000000000000703JL180226000003 ASSIST.MEDICA MEDICA00000458pereirjr
20180200000000009562700478C0462062723022018000000000005928JL180226000003 ASSIST.MEDICA MEDICA00000462pereirjr
20180200000000009562700479C0463062723022018000000000002612JL180226000003 ASSIST.MEDICA MEDICA00000463pereirjr
20180200000000009562700480C0464062723022018000000000000401JL180226000003 ASSIST.MEDICA MEDICA00000464pereirjr
20180200000000009562700481C0465062723022018000000000000051JL180226000003 ASSIST.MEDICA MEDICA00000465pereirjr
20180200000000009562700482C0570062723022018000000000000050JL180226000003 ASSIST.MEDICA MEDICA00000570pereirjr
20180200000000009562700483C0571062723022018000000000000101JL180226000003 ASSIST.MEDICA MEDICA00000571pereirjr
20180200000000009562700484C0572062723022018000000000000301JL180226000003 ASSIST.MEDICA MEDICA00000572pereirjr
20180200000000009562700485C0573062723022018000000000000402JL180226000003 ASSIST.MEDICA MEDICA00000573pereirjr
20180200000000009562700486C0574062723022018000000000000201JL180226000003 ASSIST.MEDICA MEDICA00000574pereirjr
20180200000000009562700487C0575062723022018000000000000351JL180226000003 ASSIST.MEDICA MEDICA00000575pereirjr
20180200000000009562700488C0576062723022018000000000000101JL180226000003 ASSIST.MEDICA MEDICA00000576pereirjr
20180200000000009562700489C0811062723022018000000000000351JL180226000003 ASSIST.MEDICA MEDICA00000811pereirjr
20180200000000009562700490C0812062723022018000000000000101JL180226000003 ASSIST.MEDICA MEDICA00000812pereirjr
